{
  "_format": "hh-sol-artifact-1",
  "contractName": "RewardDistributor",
  "sourceName": "contracts/RewardDistributer.sol",
  "abi": [
    {
      "inputs": [
        {
          "internalType": "address",
          "name": "usdcAddress",
          "type": "address"
        },
        {
          "internalType": "address",
          "name": "initialOwner",
          "type": "address"
        }
      ],
      "stateMutability": "nonpayable",
      "type": "constructor"
    },
    {
      "inputs": [
        {
          "internalType": "address",
          "name": "owner",
          "type": "address"
        }
      ],
      "name": "OwnableInvalidOwner",
      "type": "error"
    },
    {
      "inputs": [
        {
          "internalType": "address",
          "name": "account",
          "type": "address"
        }
      ],
      "name": "OwnableUnauthorizedAccount",
      "type": "error"
    },
    {
      "anonymous": false,
      "inputs": [
        {
          "indexed": true,
          "internalType": "address",
          "name": "previousOwner",
          "type": "address"
        },
        {
          "indexed": true,
          "internalType": "address",
          "name": "newOwner",
          "type": "address"
        }
      ],
      "name": "OwnershipTransferred",
      "type": "event"
    },
    {
      "inputs": [
        {
          "internalType": "address[]",
          "name": "recipients",
          "type": "address[]"
        },
        {
          "internalType": "uint256[]",
          "name": "ratings",
          "type": "uint256[]"
        }
      ],
      "name": "distributeRewards",
      "outputs": [],
      "stateMutability": "nonpayable",
      "type": "function"
    },
    {
      "inputs": [],
      "name": "owner",
      "outputs": [
        {
          "internalType": "address",
          "name": "",
          "type": "address"
        }
      ],
      "stateMutability": "view",
      "type": "function"
    },
    {
      "inputs": [],
      "name": "renounceOwnership",
      "outputs": [],
      "stateMutability": "nonpayable",
      "type": "function"
    },
    {
      "inputs": [
        {
          "internalType": "address",
          "name": "newOwner",
          "type": "address"
        }
      ],
      "name": "transferOwnership",
      "outputs": [],
      "stateMutability": "nonpayable",
      "type": "function"
    },
    {
      "inputs": [],
      "name": "usdc",
      "outputs": [
        {
          "internalType": "contract IERC20",
          "name": "",
          "type": "address"
        }
      ],
      "stateMutability": "view",
      "type": "function"
    }
  ],
  "bytecode": "0x60806040523480156200001157600080fd5b5060405162000eab38038062000eab833981810160405281019062000037919062000236565b80600073ffffffffffffffffffffffffffffffffffffffff168173ffffffffffffffffffffffffffffffffffffffff1603620000ad5760006040517f1e4fbdf7000000000000000000000000000000000000000000000000000000008152600401620000a491906200028e565b60405180910390fd5b620000be816200010860201b60201c565b5081600160006101000a81548173ffffffffffffffffffffffffffffffffffffffff021916908373ffffffffffffffffffffffffffffffffffffffff1602179055505050620002ab565b60008060009054906101000a900473ffffffffffffffffffffffffffffffffffffffff169050816000806101000a81548173ffffffffffffffffffffffffffffffffffffffff021916908373ffffffffffffffffffffffffffffffffffffffff1602179055508173ffffffffffffffffffffffffffffffffffffffff168173ffffffffffffffffffffffffffffffffffffffff167f8be0079c531659141344cd1fd0a4f28419497f9722a3daafe3b4186f6b6457e060405160405180910390a35050565b600080fd5b600073ffffffffffffffffffffffffffffffffffffffff82169050919050565b6000620001fe82620001d1565b9050919050565b6200021081620001f1565b81146200021c57600080fd5b50565b600081519050620002308162000205565b92915050565b6000806040838503121562000250576200024f620001cc565b5b600062000260858286016200021f565b925050602062000273858286016200021f565b9150509250929050565b6200028881620001f1565b82525050565b6000602082019050620002a560008301846200027d565b92915050565b610bf080620002bb6000396000f3fe608060405234801561001057600080fd5b50600436106100575760003560e01c8063143ba4f31461005c5780633e413bee14610078578063715018a6146100965780638da5cb5b146100a0578063f2fde38b146100be575b600080fd5b6100766004803603810190610071919061067f565b6100da565b005b61008061037e565b60405161008d919061077f565b60405180910390f35b61009e6103a4565b005b6100a86103b8565b6040516100b591906107bb565b60405180910390f35b6100d860048036038101906100d39190610802565b6103e1565b005b6100e2610467565b81819050848490501461012a576040517f08c379a0000000000000000000000000000000000000000000000000000000008152600401610121906108b2565b60405180910390fd5b6000805b838390508110156101735783838281811061014c5761014b6108d2565b5b905060200201358261015e919061093a565b9150808061016b9061096e565b91505061012e565b506000600160009054906101000a900473ffffffffffffffffffffffffffffffffffffffff1673ffffffffffffffffffffffffffffffffffffffff166370a08231306040518263ffffffff1660e01b81526004016101d191906107bb565b602060405180830381865afa1580156101ee573d6000803e3d6000fd5b505050506040513d601f19601f8201168201806040525081019061021291906109e2565b905060008111610257576040517f08c379a000000000000000000000000000000000000000000000000000000000815260040161024e90610a5b565b60405180910390fd5b60005b868690508110156103755760008386868481811061027b5761027a6108d2565b5b905060200201358461028d9190610a7b565b6102979190610aec565b9050600160009054906101000a900473ffffffffffffffffffffffffffffffffffffffff1673ffffffffffffffffffffffffffffffffffffffff1663a9059cbb8989858181106102ea576102e96108d2565b5b90506020020160208101906102ff9190610802565b836040518363ffffffff1660e01b815260040161031d929190610b2c565b6020604051808303816000875af115801561033c573d6000803e3d6000fd5b505050506040513d601f19601f820116820180604052508101906103609190610b8d565b5050808061036d9061096e565b91505061025a565b50505050505050565b600160009054906101000a900473ffffffffffffffffffffffffffffffffffffffff1681565b6103ac610467565b6103b660006104ee565b565b60008060009054906101000a900473ffffffffffffffffffffffffffffffffffffffff16905090565b6103e9610467565b600073ffffffffffffffffffffffffffffffffffffffff168173ffffffffffffffffffffffffffffffffffffffff160361045b5760006040517f1e4fbdf700000000000000000000000000000000000000000000000000000000815260040161045291906107bb565b60405180910390fd5b610464816104ee565b50565b61046f6105b2565b73ffffffffffffffffffffffffffffffffffffffff1661048d6103b8565b73ffffffffffffffffffffffffffffffffffffffff16146104ec576104b06105b2565b6040517f118cdaa70000000000000000000000000000000000000000000000000000000081526004016104e391906107bb565b60405180910390fd5b565b60008060009054906101000a900473ffffffffffffffffffffffffffffffffffffffff169050816000806101000a81548173ffffffffffffffffffffffffffffffffffffffff021916908373ffffffffffffffffffffffffffffffffffffffff1602179055508173ffffffffffffffffffffffffffffffffffffffff168173ffffffffffffffffffffffffffffffffffffffff167f8be0079c531659141344cd1fd0a4f28419497f9722a3daafe3b4186f6b6457e060405160405180910390a35050565b600033905090565b600080fd5b600080fd5b600080fd5b600080fd5b600080fd5b60008083601f8401126105e9576105e86105c4565b5b8235905067ffffffffffffffff811115610606576106056105c9565b5b602083019150836020820283011115610622576106216105ce565b5b9250929050565b60008083601f84011261063f5761063e6105c4565b5b8235905067ffffffffffffffff81111561065c5761065b6105c9565b5b602083019150836020820283011115610678576106776105ce565b5b9250929050565b60008060008060408587031215610699576106986105ba565b5b600085013567ffffffffffffffff8111156106b7576106b66105bf565b5b6106c3878288016105d3565b9450945050602085013567ffffffffffffffff8111156106e6576106e56105bf565b5b6106f287828801610629565b925092505092959194509250565b600073ffffffffffffffffffffffffffffffffffffffff82169050919050565b6000819050919050565b600061074561074061073b84610700565b610720565b610700565b9050919050565b60006107578261072a565b9050919050565b60006107698261074c565b9050919050565b6107798161075e565b82525050565b60006020820190506107946000830184610770565b92915050565b60006107a582610700565b9050919050565b6107b58161079a565b82525050565b60006020820190506107d060008301846107ac565b92915050565b6107df8161079a565b81146107ea57600080fd5b50565b6000813590506107fc816107d6565b92915050565b600060208284031215610818576108176105ba565b5b6000610826848285016107ed565b91505092915050565b600082825260208201905092915050565b7f4d69736d61746368206265747765656e20726563697069656e747320616e642060008201527f726174696e677300000000000000000000000000000000000000000000000000602082015250565b600061089c60278361082f565b91506108a782610840565b604082019050919050565b600060208201905081810360008301526108cb8161088f565b9050919050565b7f4e487b7100000000000000000000000000000000000000000000000000000000600052603260045260246000fd5b6000819050919050565b7f4e487b7100000000000000000000000000000000000000000000000000000000600052601160045260246000fd5b600061094582610901565b915061095083610901565b92508282019050808211156109685761096761090b565b5b92915050565b600061097982610901565b91507fffffffffffffffffffffffffffffffffffffffffffffffffffffffffffffffff82036109ab576109aa61090b565b5b600182019050919050565b6109bf81610901565b81146109ca57600080fd5b50565b6000815190506109dc816109b6565b92915050565b6000602082840312156109f8576109f76105ba565b5b6000610a06848285016109cd565b91505092915050565b7f52657761726420706f6f6c20697320656d707479000000000000000000000000600082015250565b6000610a4560148361082f565b9150610a5082610a0f565b602082019050919050565b60006020820190508181036000830152610a7481610a38565b9050919050565b6000610a8682610901565b9150610a9183610901565b9250828202610a9f81610901565b91508282048414831517610ab657610ab561090b565b5b5092915050565b7f4e487b7100000000000000000000000000000000000000000000000000000000600052601260045260246000fd5b6000610af782610901565b9150610b0283610901565b925082610b1257610b11610abd565b5b828204905092915050565b610b2681610901565b82525050565b6000604082019050610b4160008301856107ac565b610b4e6020830184610b1d565b9392505050565b60008115159050919050565b610b6a81610b55565b8114610b7557600080fd5b50565b600081519050610b8781610b61565b92915050565b600060208284031215610ba357610ba26105ba565b5b6000610bb184828501610b78565b9150509291505056fea2646970667358221220e43f7d1f8d49bc459d7e67ad74ecc88280e61c6b263d2693a7c22cf347decf5964736f6c63430008140033",
  "linkReferences": {},
  "deployedLinkReferences": {}
}