{
  "_format": "hh-sol-artifact-1",
  "contractName": "HypeTribe",
  "sourceName": "contracts/HypeTribe.sol",
  "abi": [
    {
      "inputs": [],
      "stateMutability": "nonpayable",
      "type": "constructor"
    },
    {
      "inputs": [
        {
          "internalType": "address",
          "name": "sender",
          "type": "address"
        },
        {
          "internalType": "uint256",
          "name": "tokenId",
          "type": "uint256"
        },
        {
          "internalType": "address",
          "name": "owner",
          "type": "address"
        }
      ],
      "name": "ERC721IncorrectOwner",
      "type": "error"
    },
    {
      "inputs": [
        {
          "internalType": "address",
          "name": "operator",
          "type": "address"
        },
        {
          "internalType": "uint256",
          "name": "tokenId",
          "type": "uint256"
        }
      ],
      "name": "ERC721InsufficientApproval",
      "type": "error"
    },
    {
      "inputs": [
        {
          "internalType": "address",
          "name": "approver",
          "type": "address"
        }
      ],
      "name": "ERC721InvalidApprover",
      "type": "error"
    },
    {
      "inputs": [
        {
          "internalType": "address",
          "name": "operator",
          "type": "address"
        }
      ],
      "name": "ERC721InvalidOperator",
      "type": "error"
    },
    {
      "inputs": [
        {
          "internalType": "address",
          "name": "owner",
          "type": "address"
        }
      ],
      "name": "ERC721InvalidOwner",
      "type": "error"
    },
    {
      "inputs": [
        {
          "internalType": "address",
          "name": "receiver",
          "type": "address"
        }
      ],
      "name": "ERC721InvalidReceiver",
      "type": "error"
    },
    {
      "inputs": [
        {
          "internalType": "address",
          "name": "sender",
          "type": "address"
        }
      ],
      "name": "ERC721InvalidSender",
      "type": "error"
    },
    {
      "inputs": [
        {
          "internalType": "uint256",
          "name": "tokenId",
          "type": "uint256"
        }
      ],
      "name": "ERC721NonexistentToken",
      "type": "error"
    },
    {
      "anonymous": false,
      "inputs": [
        {
          "indexed": true,
          "internalType": "address",
          "name": "owner",
          "type": "address"
        },
        {
          "indexed": true,
          "internalType": "address",
          "name": "approved",
          "type": "address"
        },
        {
          "indexed": true,
          "internalType": "uint256",
          "name": "tokenId",
          "type": "uint256"
        }
      ],
      "name": "Approval",
      "type": "event"
    },
    {
      "anonymous": false,
      "inputs": [
        {
          "indexed": true,
          "internalType": "address",
          "name": "owner",
          "type": "address"
        },
        {
          "indexed": true,
          "internalType": "address",
          "name": "operator",
          "type": "address"
        },
        {
          "indexed": false,
          "internalType": "bool",
          "name": "approved",
          "type": "bool"
        }
      ],
      "name": "ApprovalForAll",
      "type": "event"
    },
    {
      "anonymous": false,
      "inputs": [
        {
          "indexed": false,
          "internalType": "uint256",
          "name": "_fromTokenId",
          "type": "uint256"
        },
        {
          "indexed": false,
          "internalType": "uint256",
          "name": "_toTokenId",
          "type": "uint256"
        }
      ],
      "name": "BatchMetadataUpdate",
      "type": "event"
    },
    {
      "anonymous": false,
      "inputs": [
        {
          "indexed": false,
          "internalType": "address",
          "name": "userAddress",
          "type": "address"
        },
        {
          "indexed": false,
          "internalType": "uint256",
          "name": "eventId",
          "type": "uint256"
        }
      ],
      "name": "Checkin",
      "type": "event"
    },
    {
      "anonymous": false,
      "inputs": [
        {
          "indexed": false,
          "internalType": "uint256",
          "name": "_tokenId",
          "type": "uint256"
        }
      ],
      "name": "MetadataUpdate",
      "type": "event"
    },
    {
      "anonymous": false,
      "inputs": [
        {
          "indexed": false,
          "internalType": "address",
          "name": "userAddress",
          "type": "address"
        },
        {
          "indexed": false,
          "internalType": "uint256",
          "name": "eventId",
          "type": "uint256"
        }
      ],
      "name": "StartEvent",
      "type": "event"
    },
    {
      "anonymous": false,
      "inputs": [
        {
          "indexed": false,
          "internalType": "address",
          "name": "userAddress",
          "type": "address"
        },
        {
          "indexed": false,
          "internalType": "uint256",
          "name": "eventId",
          "type": "uint256"
        }
      ],
      "name": "StopEvent",
      "type": "event"
    },
    {
      "anonymous": false,
      "inputs": [
        {
          "indexed": true,
          "internalType": "address",
          "name": "from",
          "type": "address"
        },
        {
          "indexed": true,
          "internalType": "address",
          "name": "to",
          "type": "address"
        },
        {
          "indexed": true,
          "internalType": "uint256",
          "name": "tokenId",
          "type": "uint256"
        }
      ],
      "name": "Transfer",
      "type": "event"
    },
    {
      "inputs": [
        {
          "internalType": "uint256",
          "name": "",
          "type": "uint256"
        },
        {
          "internalType": "uint256",
          "name": "",
          "type": "uint256"
        }
      ],
      "name": "_eventIdToEventActions",
      "outputs": [
        {
          "internalType": "uint256",
          "name": "timestamp",
          "type": "uint256"
        },
        {
          "internalType": "address",
          "name": "userAddress",
          "type": "address"
        },
        {
          "internalType": "bool",
          "name": "actionStatus",
          "type": "bool"
        }
      ],
      "stateMutability": "view",
      "type": "function"
    },
    {
      "inputs": [
        {
          "internalType": "uint256",
          "name": "",
          "type": "uint256"
        }
      ],
      "name": "_eventIdToEventIndex",
      "outputs": [
        {
          "internalType": "uint256",
          "name": "",
          "type": "uint256"
        }
      ],
      "stateMutability": "view",
      "type": "function"
    },
    {
      "inputs": [
        {
          "internalType": "uint256",
          "name": "",
          "type": "uint256"
        }
      ],
      "name": "_eventIdToEventStats",
      "outputs": [
        {
          "internalType": "uint256",
          "name": "totalActions",
          "type": "uint256"
        },
        {
          "internalType": "uint256",
          "name": "totalRewards",
          "type": "uint256"
        },
        {
          "internalType": "uint256",
          "name": "totalUsers",
          "type": "uint256"
        },
        {
          "internalType": "uint256",
          "name": "createdAt",
          "type": "uint256"
        },
        {
          "internalType": "uint256",
          "name": "stoppedAt",
          "type": "uint256"
        }
      ],
      "stateMutability": "view",
      "type": "function"
    },
    {
      "inputs": [
        {
          "internalType": "uint256",
          "name": "",
          "type": "uint256"
        }
      ],
      "name": "_eventIdToQuest",
      "outputs": [
        {
          "internalType": "string",
          "name": "rewardTitle",
          "type": "string"
        },
        {
          "internalType": "string",
          "name": "rewardDescription",
          "type": "string"
        },
        {
          "internalType": "string",
          "name": "rewardUri",
          "type": "string"
        }
      ],
      "stateMutability": "view",
      "type": "function"
    },
    {
      "inputs": [
        {
          "internalType": "uint256",
          "name": "",
          "type": "uint256"
        },
        {
          "internalType": "address",
          "name": "",
          "type": "address"
        }
      ],
      "name": "_hasUserClaimedRewards",
      "outputs": [
        {
          "internalType": "bool",
          "name": "",
          "type": "bool"
        }
      ],
      "stateMutability": "view",
      "type": "function"
    },
    {
      "inputs": [
        {
          "internalType": "uint256",
          "name": "",
          "type": "uint256"
        }
      ],
      "name": "_isEventIdExist",
      "outputs": [
        {
          "internalType": "bool",
          "name": "",
          "type": "bool"
        }
      ],
      "stateMutability": "view",
      "type": "function"
    },
    {
      "inputs": [
        {
          "internalType": "address",
          "name": "to",
          "type": "address"
        },
        {
          "internalType": "uint256",
          "name": "tokenId",
          "type": "uint256"
        }
      ],
      "name": "approve",
      "outputs": [],
      "stateMutability": "nonpayable",
      "type": "function"
    },
    {
      "inputs": [
        {
          "internalType": "address",
          "name": "owner",
          "type": "address"
        }
      ],
      "name": "balanceOf",
      "outputs": [
        {
          "internalType": "uint256",
          "name": "",
          "type": "uint256"
        }
      ],
      "stateMutability": "view",
      "type": "function"
    },
    {
      "inputs": [
        {
          "internalType": "uint56",
          "name": "_eventId",
          "type": "uint56"
        },
        {
          "internalType": "address",
          "name": "_recipient",
          "type": "address"
        }
      ],
      "name": "checkin",
      "outputs": [],
      "stateMutability": "nonpayable",
      "type": "function"
    },
    {
      "inputs": [],
      "name": "collectionName",
      "outputs": [
        {
          "internalType": "string",
          "name": "",
          "type": "string"
        }
      ],
      "stateMutability": "view",
      "type": "function"
    },
    {
      "inputs": [],
      "name": "collectionSymbol",
      "outputs": [
        {
          "internalType": "string",
          "name": "",
          "type": "string"
        }
      ],
      "stateMutability": "view",
      "type": "function"
    },
    {
      "inputs": [],
      "name": "eventCount",
      "outputs": [
        {
          "internalType": "uint256",
          "name": "",
          "type": "uint256"
        }
      ],
      "stateMutability": "view",
      "type": "function"
    },
    {
      "inputs": [
        {
          "internalType": "uint256",
          "name": "",
          "type": "uint256"
        }
      ],
      "name": "eventDatas",
      "outputs": [
        {
          "internalType": "uint256",
          "name": "eventId",
          "type": "uint256"
        },
        {
          "internalType": "uint256",
          "name": "startTime",
          "type": "uint256"
        },
        {
          "internalType": "uint256",
          "name": "finishTime",
          "type": "uint256"
        },
        {
          "internalType": "uint256",
          "name": "totalUsers",
          "type": "uint256"
        },
        {
          "internalType": "address",
          "name": "eventOwner",
          "type": "address"
        },
        {
          "internalType": "string",
          "name": "eventName",
          "type": "string"
        },
        {
          "internalType": "string",
          "name": "eventDescription",
          "type": "string"
        },
        {
          "internalType": "bool",
          "name": "isAvailable",
          "type": "bool"
        }
      ],
      "stateMutability": "view",
      "type": "function"
    },
    {
      "inputs": [
        {
          "internalType": "uint256",
          "name": "tokenId",
          "type": "uint256"
        }
      ],
      "name": "getApproved",
      "outputs": [
        {
          "internalType": "address",
          "name": "",
          "type": "address"
        }
      ],
      "stateMutability": "view",
      "type": "function"
    },
    {
      "inputs": [],
      "name": "getCurrentTimestamp",
      "outputs": [
        {
          "internalType": "uint256",
          "name": "",
          "type": "uint256"
        }
      ],
      "stateMutability": "view",
      "type": "function"
    },
    {
      "inputs": [
        {
          "internalType": "uint256",
          "name": "_eventId",
          "type": "uint256"
        }
      ],
      "name": "getEvent",
      "outputs": [
        {
          "components": [
            {
              "components": [
                {
                  "internalType": "uint256",
                  "name": "eventId",
                  "type": "uint256"
                },
                {
                  "internalType": "uint256",
                  "name": "startTime",
                  "type": "uint256"
                },
                {
                  "internalType": "uint256",
                  "name": "finishTime",
                  "type": "uint256"
                },
                {
                  "internalType": "uint256",
                  "name": "totalUsers",
                  "type": "uint256"
                },
                {
                  "internalType": "address",
                  "name": "eventOwner",
                  "type": "address"
                },
                {
                  "internalType": "string",
                  "name": "eventName",
                  "type": "string"
                },
                {
                  "internalType": "string",
                  "name": "eventDescription",
                  "type": "string"
                },
                {
                  "internalType": "bool",
                  "name": "isAvailable",
                  "type": "bool"
                }
              ],
              "internalType": "struct HypeTribe.EventData",
              "name": "eventData",
              "type": "tuple"
            },
            {
              "components": [
                {
                  "internalType": "uint256",
                  "name": "totalActions",
                  "type": "uint256"
                },
                {
                  "internalType": "uint256",
                  "name": "totalRewards",
                  "type": "uint256"
                },
                {
                  "internalType": "uint256",
                  "name": "totalUsers",
                  "type": "uint256"
                },
                {
                  "internalType": "uint256",
                  "name": "createdAt",
                  "type": "uint256"
                },
                {
                  "internalType": "uint256",
                  "name": "stoppedAt",
                  "type": "uint256"
                },
                {
                  "internalType": "address[]",
                  "name": "participants",
                  "type": "address[]"
                }
              ],
              "internalType": "struct HypeTribe.EventStats",
              "name": "eventStats",
              "type": "tuple"
            },
            {
              "components": [
                {
                  "internalType": "string",
                  "name": "rewardTitle",
                  "type": "string"
                },
                {
                  "internalType": "string",
                  "name": "rewardDescription",
                  "type": "string"
                },
                {
                  "internalType": "string",
                  "name": "rewardUri",
                  "type": "string"
                }
              ],
              "internalType": "struct HypeTribe.Quest",
              "name": "quest",
              "type": "tuple"
            }
          ],
          "internalType": "struct HypeTribe.Event",
          "name": "",
          "type": "tuple"
        }
      ],
      "stateMutability": "view",
      "type": "function"
    },
    {
      "inputs": [
        {
          "internalType": "uint256",
          "name": "_eventId",
          "type": "uint256"
        },
        {
          "internalType": "uint256",
          "name": "_fromIndex",
          "type": "uint256"
        },
        {
          "internalType": "uint256",
          "name": "_limit",
          "type": "uint256"
        }
      ],
      "name": "getEventActions",
      "outputs": [
        {
          "components": [
            {
              "internalType": "uint256",
              "name": "timestamp",
              "type": "uint256"
            },
            {
              "internalType": "address",
              "name": "userAddress",
              "type": "address"
            },
            {
              "internalType": "bool",
              "name": "actionStatus",
              "type": "bool"
            }
          ],
          "internalType": "struct HypeTribe.EventAction[]",
          "name": "",
          "type": "tuple[]"
        }
      ],
      "stateMutability": "view",
      "type": "function"
    },
    {
      "inputs": [
        {
          "internalType": "uint256",
          "name": "_eventId",
          "type": "uint256"
        }
      ],
      "name": "getEventData",
      "outputs": [
        {
          "components": [
            {
              "internalType": "uint256",
              "name": "eventId",
              "type": "uint256"
            },
            {
              "internalType": "uint256",
              "name": "startTime",
              "type": "uint256"
            },
            {
              "internalType": "uint256",
              "name": "finishTime",
              "type": "uint256"
            },
            {
              "internalType": "uint256",
              "name": "totalUsers",
              "type": "uint256"
            },
            {
              "internalType": "address",
              "name": "eventOwner",
              "type": "address"
            },
            {
              "internalType": "string",
              "name": "eventName",
              "type": "string"
            },
            {
              "internalType": "string",
              "name": "eventDescription",
              "type": "string"
            },
            {
              "internalType": "bool",
              "name": "isAvailable",
              "type": "bool"
            }
          ],
          "internalType": "struct HypeTribe.EventData",
          "name": "",
          "type": "tuple"
        }
      ],
      "stateMutability": "view",
      "type": "function"
    },
    {
      "inputs": [
        {
          "internalType": "uint256",
          "name": "_fromIndex",
          "type": "uint256"
        },
        {
          "internalType": "uint256",
          "name": "_limit",
          "type": "uint256"
        }
      ],
      "name": "getOngoingEventDatas",
      "outputs": [
        {
          "components": [
            {
              "internalType": "uint256",
              "name": "eventId",
              "type": "uint256"
            },
            {
              "internalType": "uint256",
              "name": "startTime",
              "type": "uint256"
            },
            {
              "internalType": "uint256",
              "name": "finishTime",
              "type": "uint256"
            },
            {
              "internalType": "uint256",
              "name": "totalUsers",
              "type": "uint256"
            },
            {
              "internalType": "address",
              "name": "eventOwner",
              "type": "address"
            },
            {
              "internalType": "string",
              "name": "eventName",
              "type": "string"
            },
            {
              "internalType": "string",
              "name": "eventDescription",
              "type": "string"
            },
            {
              "internalType": "bool",
              "name": "isAvailable",
              "type": "bool"
            }
          ],
          "internalType": "struct HypeTribe.EventData[]",
          "name": "",
          "type": "tuple[]"
        }
      ],
      "stateMutability": "view",
      "type": "function"
    },
    {
      "inputs": [
        {
          "internalType": "uint256",
          "name": "_fromIndex",
          "type": "uint256"
        },
        {
          "internalType": "uint256",
          "name": "_limit",
          "type": "uint256"
        }
      ],
      "name": "getOngoingEvents",
      "outputs": [
        {
          "components": [
            {
              "components": [
                {
                  "internalType": "uint256",
                  "name": "eventId",
                  "type": "uint256"
                },
                {
                  "internalType": "uint256",
                  "name": "startTime",
                  "type": "uint256"
                },
                {
                  "internalType": "uint256",
                  "name": "finishTime",
                  "type": "uint256"
                },
                {
                  "internalType": "uint256",
                  "name": "totalUsers",
                  "type": "uint256"
                },
                {
                  "internalType": "address",
                  "name": "eventOwner",
                  "type": "address"
                },
                {
                  "internalType": "string",
                  "name": "eventName",
                  "type": "string"
                },
                {
                  "internalType": "string",
                  "name": "eventDescription",
                  "type": "string"
                },
                {
                  "internalType": "bool",
                  "name": "isAvailable",
                  "type": "bool"
                }
              ],
              "internalType": "struct HypeTribe.EventData",
              "name": "eventData",
              "type": "tuple"
            },
            {
              "components": [
                {
                  "internalType": "uint256",
                  "name": "totalActions",
                  "type": "uint256"
                },
                {
                  "internalType": "uint256",
                  "name": "totalRewards",
                  "type": "uint256"
                },
                {
                  "internalType": "uint256",
                  "name": "totalUsers",
                  "type": "uint256"
                },
                {
                  "internalType": "uint256",
                  "name": "createdAt",
                  "type": "uint256"
                },
                {
                  "internalType": "uint256",
                  "name": "stoppedAt",
                  "type": "uint256"
                },
                {
                  "internalType": "address[]",
                  "name": "participants",
                  "type": "address[]"
                }
              ],
              "internalType": "struct HypeTribe.EventStats",
              "name": "eventStats",
              "type": "tuple"
            },
            {
              "components": [
                {
                  "internalType": "string",
                  "name": "rewardTitle",
                  "type": "string"
                },
                {
                  "internalType": "string",
                  "name": "rewardDescription",
                  "type": "string"
                },
                {
                  "internalType": "string",
                  "name": "rewardUri",
                  "type": "string"
                }
              ],
              "internalType": "struct HypeTribe.Quest",
              "name": "quest",
              "type": "tuple"
            }
          ],
          "internalType": "struct HypeTribe.Event[]",
          "name": "",
          "type": "tuple[]"
        }
      ],
      "stateMutability": "view",
      "type": "function"
    },
    {
      "inputs": [
        {
          "internalType": "address",
          "name": "owner",
          "type": "address"
        },
        {
          "internalType": "address",
          "name": "operator",
          "type": "address"
        }
      ],
      "name": "isApprovedForAll",
      "outputs": [
        {
          "internalType": "bool",
          "name": "",
          "type": "bool"
        }
      ],
      "stateMutability": "view",
      "type": "function"
    },
    {
      "inputs": [],
      "name": "name",
      "outputs": [
        {
          "internalType": "string",
          "name": "",
          "type": "string"
        }
      ],
      "stateMutability": "view",
      "type": "function"
    },
    {
      "inputs": [
        {
          "internalType": "uint256",
          "name": "tokenId",
          "type": "uint256"
        }
      ],
      "name": "ownerOf",
      "outputs": [
        {
          "internalType": "address",
          "name": "",
          "type": "address"
        }
      ],
      "stateMutability": "view",
      "type": "function"
    },
    {
      "inputs": [
        {
          "internalType": "address",
          "name": "from",
          "type": "address"
        },
        {
          "internalType": "address",
          "name": "to",
          "type": "address"
        },
        {
          "internalType": "uint256",
          "name": "tokenId",
          "type": "uint256"
        }
      ],
      "name": "safeTransferFrom",
      "outputs": [],
      "stateMutability": "nonpayable",
      "type": "function"
    },
    {
      "inputs": [
        {
          "internalType": "address",
          "name": "from",
          "type": "address"
        },
        {
          "internalType": "address",
          "name": "to",
          "type": "address"
        },
        {
          "internalType": "uint256",
          "name": "tokenId",
          "type": "uint256"
        },
        {
          "internalType": "bytes",
          "name": "data",
          "type": "bytes"
        }
      ],
      "name": "safeTransferFrom",
      "outputs": [],
      "stateMutability": "nonpayable",
      "type": "function"
    },
    {
      "inputs": [
        {
          "internalType": "address",
          "name": "operator",
          "type": "address"
        },
        {
          "internalType": "bool",
          "name": "approved",
          "type": "bool"
        }
      ],
      "name": "setApprovalForAll",
      "outputs": [],
      "stateMutability": "nonpayable",
      "type": "function"
    },
    {
      "inputs": [
        {
          "internalType": "string",
          "name": "_eventName",
          "type": "string"
        },
        {
          "internalType": "string",
          "name": "_eventDescription",
          "type": "string"
        },
        {
          "internalType": "uint256",
          "name": "_startTime",
          "type": "uint256"
        },
        {
          "internalType": "uint256",
          "name": "_finishTime",
          "type": "uint256"
        },
        {
          "components": [
            {
              "internalType": "string",
              "name": "rewardTitle",
              "type": "string"
            },
            {
              "internalType": "string",
              "name": "rewardDescription",
              "type": "string"
            },
            {
              "internalType": "string",
              "name": "rewardUri",
              "type": "string"
            }
          ],
          "internalType": "struct HypeTribe.Quest",
          "name": "_quest",
          "type": "tuple"
        }
      ],
      "name": "startEvent",
      "outputs": [],
      "stateMutability": "nonpayable",
      "type": "function"
    },
    {
      "inputs": [
        {
          "internalType": "uint256",
          "name": "_eventId",
          "type": "uint256"
        }
      ],
      "name": "stopEvent",
      "outputs": [],
      "stateMutability": "nonpayable",
      "type": "function"
    },
    {
      "inputs": [
        {
          "internalType": "bytes4",
          "name": "interfaceId",
          "type": "bytes4"
        }
      ],
      "name": "supportsInterface",
      "outputs": [
        {
          "internalType": "bool",
          "name": "",
          "type": "bool"
        }
      ],
      "stateMutability": "view",
      "type": "function"
    },
    {
      "inputs": [],
      "name": "symbol",
      "outputs": [
        {
          "internalType": "string",
          "name": "",
          "type": "string"
        }
      ],
      "stateMutability": "view",
      "type": "function"
    },
    {
      "inputs": [
        {
          "internalType": "uint256",
          "name": "tokenId",
          "type": "uint256"
        }
      ],
      "name": "tokenURI",
      "outputs": [
        {
          "internalType": "string",
          "name": "",
          "type": "string"
        }
      ],
      "stateMutability": "view",
      "type": "function"
    },
    {
      "inputs": [
        {
          "internalType": "address",
          "name": "from",
          "type": "address"
        },
        {
          "internalType": "address",
          "name": "to",
          "type": "address"
        },
        {
          "internalType": "uint256",
          "name": "tokenId",
          "type": "uint256"
        }
      ],
      "name": "transferFrom",
      "outputs": [],
      "stateMutability": "nonpayable",
      "type": "function"
    }
  ],
  "bytecode": "0x60806040526040518060400160405280601181526020017f7653656c66204576656e74732053425473000000000000000000000000000000815250600990816200004a9190620003ba565b506040518060400160405280600581526020017f5653454c46000000000000000000000000000000000000000000000000000000815250600a9081620000919190620003ba565b503480156200009f57600080fd5b506040518060400160405280600681526020017f4576656e745800000000000000000000000000000000000000000000000000008152506040518060400160405280600981526020017f487970655472696265000000000000000000000000000000000000000000000081525081600090816200011d9190620003ba565b5080600190816200012f9190620003ba565b5050506000600781905550620004a1565b600081519050919050565b7f4e487b7100000000000000000000000000000000000000000000000000000000600052604160045260246000fd5b7f4e487b7100000000000000000000000000000000000000000000000000000000600052602260045260246000fd5b60006002820490506001821680620001c257607f821691505b602082108103620001d857620001d76200017a565b5b50919050565b60008190508160005260206000209050919050565b60006020601f8301049050919050565b600082821b905092915050565b600060088302620002427fffffffffffffffffffffffffffffffffffffffffffffffffffffffffffffffff8262000203565b6200024e868362000203565b95508019841693508086168417925050509392505050565b6000819050919050565b6000819050919050565b60006200029b620002956200028f8462000266565b62000270565b62000266565b9050919050565b6000819050919050565b620002b7836200027a565b620002cf620002c682620002a2565b84845462000210565b825550505050565b600090565b620002e6620002d7565b620002f3818484620002ac565b505050565b5b818110156200031b576200030f600082620002dc565b600181019050620002f9565b5050565b601f8211156200036a576200033481620001de565b6200033f84620001f3565b810160208510156200034f578190505b620003676200035e85620001f3565b830182620002f8565b50505b505050565b600082821c905092915050565b60006200038f600019846008026200036f565b1980831691505092915050565b6000620003aa83836200037c565b9150826002028217905092915050565b620003c58262000140565b67ffffffffffffffff811115620003e157620003e06200014b565b5b620003ed8254620001a9565b620003fa8282856200031f565b600060209050601f8311600181146200043257600084156200041d578287015190505b6200042985826200039c565b86555062000499565b601f1984166200044286620001de565b60005b828110156200046c5784890151825560018201915060208501945060208101905062000445565b868310156200048c578489015162000488601f8916826200037c565b8355505b6001600288020188555050505b505050505050565b615a7880620004b16000396000f3fe608060405234801561001057600080fd5b50600436106101f05760003560e01c8063771c79501161010f578063a4f1b071116100a2578063e41c934611610071578063e41c93461461064a578063e5326ab11461067a578063e985e9c514610698578063fc8dbe98146106c8576101f0565b8063a4f1b0711461059a578063b59e84f8146105cc578063b88d4fde146105fe578063c87b56dd1461061a576101f0565b806398cde487116100de57806398cde4871461050257806399f6e80c14610532578063a22cb4651461054e578063a43cbeb21461056a576101f0565b8063771c7950146104615780638db6698f1461049857806393375a7c146104c857806395d89b41146104e4576101f0565b80633031eb3d116101875780636c9230db116101565780636c9230db146103c55780636d1884e0146103e357806370a082311461041357806371be2e4a14610443576101f0565b80633031eb3d1461032d57806342842e0e146103495780634392bb68146103655780636352211e14610395576101f0565b80631b2a2ee3116101c35780631b2a2ee31461028f57806323b872dd146102c35780632597421d146102df5780632f39352a1461030f576101f0565b806301ffc9a7146101f557806306fdde0314610225578063081812fc14610243578063095ea7b314610273575b600080fd5b61020f600480360381019061020a9190613fa6565b6106f8565b60405161021c9190613fee565b60405180910390f35b61022d610759565b60405161023a9190614099565b60405180910390f35b61025d600480360381019061025891906140f1565b6107eb565b60405161026a919061415f565b60405180910390f35b61028d600480360381019061028891906141a6565b610807565b005b6102a960048036038101906102a491906140f1565b61081d565b6040516102ba9594939291906141f5565b60405180910390f35b6102dd60048036038101906102d89190614248565b610853565b005b6102f960048036038101906102f491906140f1565b610955565b604051610306919061429b565b60405180910390f35b61031761096d565b6040516103249190614099565b60405180910390f35b610347600480360381019061034291906140f1565b6109fb565b005b610363600480360381019061035e9190614248565b610ba1565b005b61037f600480360381019061037a91906140f1565b610bc1565b60405161038c91906143e4565b60405180910390f35b6103af60048036038101906103aa91906140f1565b610dda565b6040516103bc919061415f565b60405180910390f35b6103cd610dec565b6040516103da919061429b565b60405180910390f35b6103fd60048036038101906103f891906140f1565b610df4565b60405161040a91906146b1565b60405180910390f35b61042d600480360381019061042891906146d3565b6112d1565b60405161043a919061429b565b60405180910390f35b61044b61138b565b604051610458919061429b565b60405180910390f35b61047b600480360381019061047691906140f1565b611391565b60405161048f989796959493929190614700565b60405180910390f35b6104b260048036038101906104ad919061478c565b611526565b6040516104bf919061488e565b60405180910390f35b6104e260048036038101906104dd91906148ef565b611868565b005b6104ec611e25565b6040516104f99190614099565b60405180910390f35b61051c6004803603810190610517919061492f565b611eb7565b6040516105299190614a73565b60405180910390f35b61054c60048036038101906105479190614c8c565b612061565b005b61056860048036038101906105639190614d87565b6122f1565b005b610584600480360381019061057f919061478c565b612307565b6040516105919190614ee7565b60405180910390f35b6105b460048036038101906105af919061478c565b612973565b6040516105c393929190614f09565b60405180910390f35b6105e660048036038101906105e191906140f1565b6129e7565b6040516105f593929190614f40565b60405180910390f35b6106186004803603810190610613919061502d565b612ba9565b005b610634600480360381019061062f91906140f1565b612bc6565b6040516106419190614099565b60405180910390f35b610664600480360381019061065f91906150b0565b612cd9565b6040516106719190613fee565b60405180910390f35b610682612d08565b60405161068f9190614099565b60405180910390f35b6106b260048036038101906106ad91906150f0565b612d96565b6040516106bf9190613fee565b60405180910390f35b6106e260048036038101906106dd91906140f1565b612e2a565b6040516106ef9190613fee565b60405180910390f35b6000634906490660e01b7bffffffffffffffffffffffffffffffffffffffffffffffffffffffff1916827bffffffffffffffffffffffffffffffffffffffffffffffffffffffff19161480610752575061075182612e4a565b5b9050919050565b6060600080546107689061515f565b80601f01602080910402602001604051908101604052809291908181526020018280546107949061515f565b80156107e15780601f106107b6576101008083540402835291602001916107e1565b820191906000526020600020905b8154815290600101906020018083116107c457829003601f168201915b5050505050905090565b60006107f682612f2c565b5061080082612fb4565b9050919050565b6108198282610814612ff1565b612ff9565b5050565b600e6020528060005260406000206000915090508060000154908060010154908060020154908060030154908060040154905085565b600073ffffffffffffffffffffffffffffffffffffffff168273ffffffffffffffffffffffffffffffffffffffff16036108c55760006040517f64a0ae920000000000000000000000000000000000000000000000000000000081526004016108bc919061415f565b60405180910390fd5b60006108d983836108d4612ff1565b61300b565b90508373ffffffffffffffffffffffffffffffffffffffff168173ffffffffffffffffffffffffffffffffffffffff161461094f578382826040517f64283d7b00000000000000000000000000000000000000000000000000000000815260040161094693929190615190565b60405180910390fd5b50505050565b600b6020528060005260406000206000915090505481565b600a805461097a9061515f565b80601f01602080910402602001604051908101604052809291908181526020018280546109a69061515f565b80156109f35780601f106109c8576101008083540402835291602001916109f3565b820191906000526020600020905b8154815290600101906020018083116109d657829003601f168201915b505050505081565b600f600082815260200190815260200160002060009054906101000a900460ff16610a5b576040517f08c379a0000000000000000000000000000000000000000000000000000000008152600401610a5290615213565b60405180910390fd5b6000600b6000838152602001908152602001600020549050600060118281548110610a8957610a88615233565b5b906000526020600020906008020190508060040160009054906101000a900473ffffffffffffffffffffffffffffffffffffffff1673ffffffffffffffffffffffffffffffffffffffff163373ffffffffffffffffffffffffffffffffffffffff1614610b2b576040517f08c379a0000000000000000000000000000000000000000000000000000000008152600401610b22906152ae565b60405180910390fd5b60008160070160006101000a81548160ff02191690831515021790555042600e6000858152602001908152602001600020600401819055507f250e612158d9cd3f2c5e7a76e19cd4bc60f5cd7402fd8350bb4a4550cfa348463384604051610b949291906152ce565b60405180910390a1505050565b610bbc83838360405180602001604052806000815250612ba9565b505050565b610bc9613d73565b6000600b6000848152602001908152602001600020549050600060118281548110610bf757610bf6615233565b5b906000526020600020906008020160405180610100016040529081600082015481526020016001820154815260200160028201548152602001600382015481526020016004820160009054906101000a900473ffffffffffffffffffffffffffffffffffffffff1673ffffffffffffffffffffffffffffffffffffffff1673ffffffffffffffffffffffffffffffffffffffff168152602001600582018054610c9f9061515f565b80601f0160208091040260200160405190810160405280929190818152602001828054610ccb9061515f565b8015610d185780601f10610ced57610100808354040283529160200191610d18565b820191906000526020600020905b815481529060010190602001808311610cfb57829003601f168201915b50505050508152602001600682018054610d319061515f565b80601f0160208091040260200160405190810160405280929190818152602001828054610d5d9061515f565b8015610daa5780601f10610d7f57610100808354040283529160200191610daa565b820191906000526020600020905b815481529060010190602001808311610d8d57829003601f168201915b505050505081526020016007820160009054906101000a900460ff16151515158152505090508092505050919050565b6000610de582612f2c565b9050919050565b600042905090565b610dfc613dd0565b6000600b6000848152602001908152602001600020549050604051806060016040528060118381548110610e3357610e32615233565b5b906000526020600020906008020160405180610100016040529081600082015481526020016001820154815260200160028201548152602001600382015481526020016004820160009054906101000a900473ffffffffffffffffffffffffffffffffffffffff1673ffffffffffffffffffffffffffffffffffffffff1673ffffffffffffffffffffffffffffffffffffffff168152602001600582018054610edb9061515f565b80601f0160208091040260200160405190810160405280929190818152602001828054610f079061515f565b8015610f545780601f10610f2957610100808354040283529160200191610f54565b820191906000526020600020905b815481529060010190602001808311610f3757829003601f168201915b50505050508152602001600682018054610f6d9061515f565b80601f0160208091040260200160405190810160405280929190818152602001828054610f999061515f565b8015610fe65780601f10610fbb57610100808354040283529160200191610fe6565b820191906000526020600020905b815481529060010190602001808311610fc957829003601f168201915b505050505081526020016007820160009054906101000a900460ff1615151515815250508152602001600e60008681526020019081526020016000206040518060c00160405290816000820154815260200160018201548152602001600282015481526020016003820154815260200160048201548152602001600582018054806020026020016040519081016040528092919081815260200182805480156110e457602002820191906000526020600020905b8160009054906101000a900473ffffffffffffffffffffffffffffffffffffffff1673ffffffffffffffffffffffffffffffffffffffff168152602001906001019080831161109a575b5050505050815250508152602001600c60008681526020019081526020016000206040518060600160405290816000820180546111209061515f565b80601f016020809104026020016040519081016040528092919081815260200182805461114c9061515f565b80156111995780601f1061116e57610100808354040283529160200191611199565b820191906000526020600020905b81548152906001019060200180831161117c57829003601f168201915b505050505081526020016001820180546111b29061515f565b80601f01602080910402602001604051908101604052809291908181526020018280546111de9061515f565b801561122b5780601f106112005761010080835404028352916020019161122b565b820191906000526020600020905b81548152906001019060200180831161120e57829003601f168201915b505050505081526020016002820180546112449061515f565b80601f01602080910402602001604051908101604052809291908181526020018280546112709061515f565b80156112bd5780601f10611292576101008083540402835291602001916112bd565b820191906000526020600020905b8154815290600101906020018083116112a057829003601f168201915b505050505081525050815250915050919050565b60008073ffffffffffffffffffffffffffffffffffffffff168273ffffffffffffffffffffffffffffffffffffffff16036113445760006040517f89c62b6400000000000000000000000000000000000000000000000000000000815260040161133b919061415f565b60405180910390fd5b600360008373ffffffffffffffffffffffffffffffffffffffff1673ffffffffffffffffffffffffffffffffffffffff168152602001908152602001600020549050919050565b60085481565b601181815481106113a157600080fd5b90600052602060002090600802016000915090508060000154908060010154908060020154908060030154908060040160009054906101000a900473ffffffffffffffffffffffffffffffffffffffff16908060050180546114029061515f565b80601f016020809104026020016040519081016040528092919081815260200182805461142e9061515f565b801561147b5780601f106114505761010080835404028352916020019161147b565b820191906000526020600020905b81548152906001019060200180831161145e57829003601f168201915b5050505050908060060180546114909061515f565b80601f01602080910402602001604051908101604052809291908181526020018280546114bc9061515f565b80156115095780601f106114de57610100808354040283529160200191611509565b820191906000526020600020905b8154815290600101906020018083116114ec57829003601f168201915b5050505050908060070160009054906101000a900460ff16905088565b60606000829050600854838561153c9190615326565b11156115535783600854611550919061535a565b90505b60008167ffffffffffffffff81111561156f5761156e614a9f565b5b6040519080825280602002602001820160405280156115a857816020015b611595613d73565b81526020019060019003908161158d5790505b50905060005b8281101561185c57601181876115c49190615326565b815481106115d5576115d4615233565b5b906000526020600020906008020160070160009054906101000a900460ff16801561162f5750426011828861160a9190615326565b8154811061161b5761161a615233565b5b906000526020600020906008020160020154115b1561184957601181876116429190615326565b8154811061165357611652615233565b5b906000526020600020906008020160405180610100016040529081600082015481526020016001820154815260200160028201548152602001600382015481526020016004820160009054906101000a900473ffffffffffffffffffffffffffffffffffffffff1673ffffffffffffffffffffffffffffffffffffffff1673ffffffffffffffffffffffffffffffffffffffff1681526020016005820180546116fb9061515f565b80601f01602080910402602001604051908101604052809291908181526020018280546117279061515f565b80156117745780601f1061174957610100808354040283529160200191611774565b820191906000526020600020905b81548152906001019060200180831161175757829003601f168201915b5050505050815260200160068201805461178d9061515f565b80601f01602080910402602001604051908101604052809291908181526020018280546117b99061515f565b80156118065780601f106117db57610100808354040283529160200191611806565b820191906000526020600020905b8154815290600101906020018083116117e957829003601f168201915b505050505081526020016007820160009054906101000a900460ff16151515158152505082828151811061183d5761183c615233565b5b60200260200101819052505b80806118549061538e565b9150506115ae565b50809250505092915050565b601060008366ffffffffffffff16815260200190815260200160002060008273ffffffffffffffffffffffffffffffffffffffff1673ffffffffffffffffffffffffffffffffffffffff16815260200190815260200160002060009054906101000a900460ff161561190f576040517f08c379a000000000000000000000000000000000000000000000000000000000815260040161190690615422565b60405180910390fd5b600f60008366ffffffffffffff16815260200190815260200160002060009054906101000a900460ff16611978576040517f08c379a000000000000000000000000000000000000000000000000000000000815260040161196f90615213565b60405180910390fd5b6000600b60008466ffffffffffffff1681526020019081526020016000205490506000601182815481106119af576119ae615233565b5b906000526020600020906008020190508060070160009054906101000a900460ff16611a10576040517f08c379a0000000000000000000000000000000000000000000000000000000008152600401611a07906154b4565b60405180910390fd5b4281600101541115611a57576040517f08c379a0000000000000000000000000000000000000000000000000000000008152600401611a4e90615546565b60405180910390fd5b42816002015411611a9d576040517f08c379a0000000000000000000000000000000000000000000000000000000008152600401611a94906155d8565b60405180910390fd5b806003016000815480929190611ab29061538e565b91905055506001601060008666ffffffffffffff16815260200190815260200160002060008573ffffffffffffffffffffffffffffffffffffffff1673ffffffffffffffffffffffffffffffffffffffff16815260200190815260200160002060006101000a81548160ff021916908315150217905550600e60008566ffffffffffffff1681526020019081526020016000206000016000815480929190611b599061538e565b9190505550600e60008566ffffffffffffff1681526020019081526020016000206001016000815480929190611b8e9061538e565b9190505550600e60008566ffffffffffffff1681526020019081526020016000206002016000815480929190611bc39061538e565b9190505550600e60008566ffffffffffffff168152602001908152602001600020600501839080600181540180825580915050600190039060005260206000200160009091909190916101000a81548173ffffffffffffffffffffffffffffffffffffffff021916908373ffffffffffffffffffffffffffffffffffffffff160217905550600d60008566ffffffffffffff16815260200190815260200160002060405180606001604052804281526020018573ffffffffffffffffffffffffffffffffffffffff1681526020016001151581525090806001815401808255809150506001900390600052602060002090600202016000909190919091506000820151816000015560208201518160010160006101000a81548173ffffffffffffffffffffffffffffffffffffffff021916908373ffffffffffffffffffffffffffffffffffffffff16021790555060408201518160010160146101000a81548160ff0219169083151502179055505050611de583600c60008766ffffffffffffff1681526020019081526020016000206002018054611d629061515f565b80601f0160208091040260200160405190810160405280929190818152602001828054611d8e9061515f565b8015611ddb5780601f10611db057610100808354040283529160200191611ddb565b820191906000526020600020905b815481529060010190602001808311611dbe57829003601f168201915b5050505050613225565b507fda763d657043a37d5b6727921f1afb11f752742cbbd2590d990a8d3b9ff357ae8385604051611e17929190615633565b60405180910390a150505050565b606060018054611e349061515f565b80601f0160208091040260200160405190810160405280929190818152602001828054611e609061515f565b8015611ead5780601f10611e8257610100808354040283529160200191611ead565b820191906000526020600020905b815481529060010190602001808311611e9057829003601f168201915b5050505050905090565b60606000600d60008681526020019081526020016000208054905090506000839050818486611ee69190615326565b1115611efb578482611ef8919061535a565b90505b60008167ffffffffffffffff811115611f1757611f16614a9f565b5b604051908082528060200260200182016040528015611f5057816020015b611f3d613e03565b815260200190600190039081611f355790505b50905060005b8281101561205357600d60008981526020019081526020016000208188611f7d9190615326565b81548110611f8e57611f8d615233565b5b9060005260206000209060020201604051806060016040529081600082015481526020016001820160009054906101000a900473ffffffffffffffffffffffffffffffffffffffff1673ffffffffffffffffffffffffffffffffffffffff1673ffffffffffffffffffffffffffffffffffffffff1681526020016001820160149054906101000a900460ff16151515158152505082828151811061203557612034615233565b5b6020026020010181905250808061204b9061538e565b915050611f56565b508093505050509392505050565b6000600860008154809291906120769061538e565b9190505590506011600181600181540180825580915050039060005260206000209050506000601182815481106120b0576120af615233565b5b90600052602060002090600802019050600043426120ce9190615326565b90506001600f600083815260200190815260200160002060006101000a81548160ff02191690831515021790555080826000018190555085826001018190555084826002018190555060008260030181905550338260040160006101000a81548173ffffffffffffffffffffffffffffffffffffffff021916908373ffffffffffffffffffffffffffffffffffffffff1602179055508782600501908161217591906157fe565b508682600601908161218791906157fe565b5060018260070160006101000a81548160ff021916908315150217905550606083600b60008481526020019081526020016000208190555084600c600084815260200190815260200160002060008201518160000190816121e891906157fe565b5060208201518160010190816121fe91906157fe565b50604082015181600201908161221491906157fe565b509050506040518060c0016040528060008152602001600081526020016000815260200142815260200142815260200182815250600e6000848152602001908152602001600020600082015181600001556020820151816001015560408201518160020155606082015181600301556080820151816004015560a08201518160050190805190602001906122a9929190613e3c565b509050507ff7de8a82aa840b64485421b5c3a83c26c054170935c554dd3339a8dbf86cd48333836040516122de9291906152ce565b60405180910390a1505050505050505050565b6123036122fc612ff1565b8383613266565b5050565b60606000829050600854838561231d9190615326565b11156123345783600854612331919061535a565b90505b60008167ffffffffffffffff8111156123505761234f614a9f565b5b60405190808252806020026020018201604052801561238957816020015b612376613dd0565b81526020019060019003908161236e5790505b50905060005b8281101561296757601181876123a59190615326565b815481106123b6576123b5615233565b5b906000526020600020906008020160070160009054906101000a900460ff168015612410575042601182886123eb9190615326565b815481106123fc576123fb615233565b5b906000526020600020906008020160020154115b156129545760405180606001604052806011838961242e9190615326565b8154811061243f5761243e615233565b5b906000526020600020906008020160405180610100016040529081600082015481526020016001820154815260200160028201548152602001600382015481526020016004820160009054906101000a900473ffffffffffffffffffffffffffffffffffffffff1673ffffffffffffffffffffffffffffffffffffffff1673ffffffffffffffffffffffffffffffffffffffff1681526020016005820180546124e79061515f565b80601f01602080910402602001604051908101604052809291908181526020018280546125139061515f565b80156125605780601f1061253557610100808354040283529160200191612560565b820191906000526020600020905b81548152906001019060200180831161254357829003601f168201915b505050505081526020016006820180546125799061515f565b80601f01602080910402602001604051908101604052809291908181526020018280546125a59061515f565b80156125f25780601f106125c7576101008083540402835291602001916125f2565b820191906000526020600020905b8154815290600101906020018083116125d557829003601f168201915b505050505081526020016007820160009054906101000a900460ff1615151515815250508152602001600e60006011858b61262d9190615326565b8154811061263e5761263d615233565b5b90600052602060002090600802016000015481526020019081526020016000206040518060c001604052908160008201548152602001600182015481526020016002820154815260200160038201548152602001600482015481526020016005820180548060200260200160405190810160405280929190818152602001828054801561272057602002820191906000526020600020905b8160009054906101000a900473ffffffffffffffffffffffffffffffffffffffff1673ffffffffffffffffffffffffffffffffffffffff16815260200190600101908083116126d6575b5050505050815250508152602001600c60006011858b6127409190615326565b8154811061275157612750615233565b5b906000526020600020906008020160000154815260200190815260200160002060405180606001604052908160008201805461278c9061515f565b80601f01602080910402602001604051908101604052809291908181526020018280546127b89061515f565b80156128055780601f106127da57610100808354040283529160200191612805565b820191906000526020600020905b8154815290600101906020018083116127e857829003601f168201915b5050505050815260200160018201805461281e9061515f565b80601f016020809104026020016040519081016040528092919081815260200182805461284a9061515f565b80156128975780601f1061286c57610100808354040283529160200191612897565b820191906000526020600020905b81548152906001019060200180831161287a57829003601f168201915b505050505081526020016002820180546128b09061515f565b80601f01602080910402602001604051908101604052809291908181526020018280546128dc9061515f565b80156129295780601f106128fe57610100808354040283529160200191612929565b820191906000526020600020905b81548152906001019060200180831161290c57829003601f168201915b50505050508152505081525082828151811061294857612947615233565b5b60200260200101819052505b808061295f9061538e565b91505061238f565b50809250505092915050565b600d602052816000526040600020818154811061298f57600080fd5b9060005260206000209060020201600091509150508060000154908060010160009054906101000a900473ffffffffffffffffffffffffffffffffffffffff16908060010160149054906101000a900460ff16905083565b600c602052806000526040600020600091509050806000018054612a0a9061515f565b80601f0160208091040260200160405190810160405280929190818152602001828054612a369061515f565b8015612a835780601f10612a5857610100808354040283529160200191612a83565b820191906000526020600020905b815481529060010190602001808311612a6657829003601f168201915b505050505090806001018054612a989061515f565b80601f0160208091040260200160405190810160405280929190818152602001828054612ac49061515f565b8015612b115780601f10612ae657610100808354040283529160200191612b11565b820191906000526020600020905b815481529060010190602001808311612af457829003601f168201915b505050505090806002018054612b269061515f565b80601f0160208091040260200160405190810160405280929190818152602001828054612b529061515f565b8015612b9f5780601f10612b7457610100808354040283529160200191612b9f565b820191906000526020600020905b815481529060010190602001808311612b8257829003601f168201915b5050505050905083565b612bb4848484610853565b612bc0848484846133d5565b50505050565b6060612bd182612f2c565b506000600660008481526020019081526020016000208054612bf29061515f565b80601f0160208091040260200160405190810160405280929190818152602001828054612c1e9061515f565b8015612c6b5780601f10612c4057610100808354040283529160200191612c6b565b820191906000526020600020905b815481529060010190602001808311612c4e57829003601f168201915b505050505090506000612c7c61358c565b90506000815103612c91578192505050612cd4565b600082511115612cc6578082604051602001612cae92919061590c565b60405160208183030381529060405292505050612cd4565b612ccf846135a3565b925050505b919050565b60106020528160005260406000206020528060005260406000206000915091509054906101000a900460ff1681565b60098054612d159061515f565b80601f0160208091040260200160405190810160405280929190818152602001828054612d419061515f565b8015612d8e5780601f10612d6357610100808354040283529160200191612d8e565b820191906000526020600020905b815481529060010190602001808311612d7157829003601f168201915b505050505081565b6000600560008473ffffffffffffffffffffffffffffffffffffffff1673ffffffffffffffffffffffffffffffffffffffff16815260200190815260200160002060008373ffffffffffffffffffffffffffffffffffffffff1673ffffffffffffffffffffffffffffffffffffffff16815260200190815260200160002060009054906101000a900460ff16905092915050565b600f6020528060005260406000206000915054906101000a900460ff1681565b60007f80ac58cd000000000000000000000000000000000000000000000000000000007bffffffffffffffffffffffffffffffffffffffffffffffffffffffff1916827bffffffffffffffffffffffffffffffffffffffffffffffffffffffff19161480612f1557507f5b5e139f000000000000000000000000000000000000000000000000000000007bffffffffffffffffffffffffffffffffffffffffffffffffffffffff1916827bffffffffffffffffffffffffffffffffffffffffffffffffffffffff1916145b80612f255750612f248261360c565b5b9050919050565b600080612f3883613676565b9050600073ffffffffffffffffffffffffffffffffffffffff168173ffffffffffffffffffffffffffffffffffffffff1603612fab57826040517f7e273289000000000000000000000000000000000000000000000000000000008152600401612fa2919061429b565b60405180910390fd5b80915050919050565b60006004600083815260200190815260200160002060009054906101000a900473ffffffffffffffffffffffffffffffffffffffff169050919050565b600033905090565b61300683838360016136b3565b505050565b60008061301784613676565b9050600073ffffffffffffffffffffffffffffffffffffffff168373ffffffffffffffffffffffffffffffffffffffff161461305957613058818486613878565b5b600073ffffffffffffffffffffffffffffffffffffffff168173ffffffffffffffffffffffffffffffffffffffff16146130ea5761309b6000856000806136b3565b6001600360008373ffffffffffffffffffffffffffffffffffffffff1673ffffffffffffffffffffffffffffffffffffffff168152602001908152602001600020600082825403925050819055505b600073ffffffffffffffffffffffffffffffffffffffff168573ffffffffffffffffffffffffffffffffffffffff161461316d576001600360008773ffffffffffffffffffffffffffffffffffffffff1673ffffffffffffffffffffffffffffffffffffffff168152602001908152602001600020600082825401925050819055505b846002600086815260200190815260200160002060006101000a81548173ffffffffffffffffffffffffffffffffffffffff021916908373ffffffffffffffffffffffffffffffffffffffff160217905550838573ffffffffffffffffffffffffffffffffffffffff168273ffffffffffffffffffffffffffffffffffffffff167fddf252ad1be2c89b69c2b068fc378daa952ba7f163c4a11628f55a4df523b3ef60405160405180910390a4809150509392505050565b600060016007600082825461323a9190615326565b9250508190555060006007549050613252848261393c565b61325c8184613a35565b8091505092915050565b600073ffffffffffffffffffffffffffffffffffffffff168273ffffffffffffffffffffffffffffffffffffffff16036132d757816040517f5b08ba180000000000000000000000000000000000000000000000000000000081526004016132ce919061415f565b60405180910390fd5b80600560008573ffffffffffffffffffffffffffffffffffffffff1673ffffffffffffffffffffffffffffffffffffffff16815260200190815260200160002060008473ffffffffffffffffffffffffffffffffffffffff1673ffffffffffffffffffffffffffffffffffffffff16815260200190815260200160002060006101000a81548160ff0219169083151502179055508173ffffffffffffffffffffffffffffffffffffffff168373ffffffffffffffffffffffffffffffffffffffff167f17307eab39ab6107e8899845ad3d59bd9653f200f220920489ca2b5937696c31836040516133c89190613fee565b60405180910390a3505050565b60008373ffffffffffffffffffffffffffffffffffffffff163b1115613586578273ffffffffffffffffffffffffffffffffffffffff1663150b7a02613419612ff1565b8685856040518563ffffffff1660e01b815260040161343b9493929190615985565b6020604051808303816000875af192505050801561347757506040513d601f19601f8201168201806040525081019061347491906159e6565b60015b6134fb573d80600081146134a7576040519150601f19603f3d011682016040523d82523d6000602084013e6134ac565b606091505b5060008151036134f357836040517f64a0ae920000000000000000000000000000000000000000000000000000000081526004016134ea919061415f565b60405180910390fd5b805181602001fd5b63150b7a0260e01b7bffffffffffffffffffffffffffffffffffffffffffffffffffffffff1916817bffffffffffffffffffffffffffffffffffffffffffffffffffffffff19161461358457836040517f64a0ae9200000000000000000000000000000000000000000000000000000000815260040161357b919061415f565b60405180910390fd5b505b50505050565b606060405180602001604052806000815250905090565b60606135ae82612f2c565b5060006135b961358c565b905060008151116135d95760405180602001604052806000815250613604565b806135e384613a91565b6040516020016135f492919061590c565b6040516020818303038152906040525b915050919050565b60007f01ffc9a7000000000000000000000000000000000000000000000000000000007bffffffffffffffffffffffffffffffffffffffffffffffffffffffff1916827bffffffffffffffffffffffffffffffffffffffffffffffffffffffff1916149050919050565b60006002600083815260200190815260200160002060009054906101000a900473ffffffffffffffffffffffffffffffffffffffff169050919050565b80806136ec5750600073ffffffffffffffffffffffffffffffffffffffff168273ffffffffffffffffffffffffffffffffffffffff1614155b156138205760006136fc84612f2c565b9050600073ffffffffffffffffffffffffffffffffffffffff168373ffffffffffffffffffffffffffffffffffffffff161415801561376757508273ffffffffffffffffffffffffffffffffffffffff168173ffffffffffffffffffffffffffffffffffffffff1614155b801561377a57506137788184612d96565b155b156137bc57826040517fa9fbf51f0000000000000000000000000000000000000000000000000000000081526004016137b3919061415f565b60405180910390fd5b811561381e57838573ffffffffffffffffffffffffffffffffffffffff168273ffffffffffffffffffffffffffffffffffffffff167f8c5be1e5ebec7d5bd14f71427d1e84f3dd0314c0f7b2291e5b200ac8c7c3b92560405160405180910390a45b505b836004600085815260200190815260200160002060006101000a81548173ffffffffffffffffffffffffffffffffffffffff021916908373ffffffffffffffffffffffffffffffffffffffff16021790555050505050565b613883838383613b5f565b61393757600073ffffffffffffffffffffffffffffffffffffffff168373ffffffffffffffffffffffffffffffffffffffff16036138f857806040517f7e2732890000000000000000000000000000000000000000000000000000000081526004016138ef919061429b565b60405180910390fd5b81816040517f177e802f00000000000000000000000000000000000000000000000000000000815260040161392e9291906152ce565b60405180910390fd5b505050565b600073ffffffffffffffffffffffffffffffffffffffff168273ffffffffffffffffffffffffffffffffffffffff16036139ae5760006040517f64a0ae920000000000000000000000000000000000000000000000000000000081526004016139a5919061415f565b60405180910390fd5b60006139bc8383600061300b565b9050600073ffffffffffffffffffffffffffffffffffffffff168173ffffffffffffffffffffffffffffffffffffffff1614613a305760006040517f73c6ac6e000000000000000000000000000000000000000000000000000000008152600401613a27919061415f565b60405180910390fd5b505050565b80600660008481526020019081526020016000209081613a5591906157fe565b507ff8e1a15aba9398e019f0b49df1a4fde98ee17ae345cb5f6b5e2c27f5033e8ce782604051613a85919061429b565b60405180910390a15050565b606060006001613aa084613c20565b01905060008167ffffffffffffffff811115613abf57613abe614a9f565b5b6040519080825280601f01601f191660200182016040528015613af15781602001600182028036833780820191505090505b509050600082602001820190505b600115613b54578080600190039150507f3031323334353637383961626364656600000000000000000000000000000000600a86061a8153600a8581613b4857613b47615a13565b5b04945060008503613aff575b819350505050919050565b60008073ffffffffffffffffffffffffffffffffffffffff168373ffffffffffffffffffffffffffffffffffffffff1614158015613c1757508273ffffffffffffffffffffffffffffffffffffffff168473ffffffffffffffffffffffffffffffffffffffff161480613bd85750613bd78484612d96565b5b80613c1657508273ffffffffffffffffffffffffffffffffffffffff16613bfe83612fb4565b73ffffffffffffffffffffffffffffffffffffffff16145b5b90509392505050565b600080600090507a184f03e93ff9f4daa797ed6e38ed64bf6a1f0100000000000000008310613c7e577a184f03e93ff9f4daa797ed6e38ed64bf6a1f0100000000000000008381613c7457613c73615a13565b5b0492506040810190505b6d04ee2d6d415b85acef81000000008310613cbb576d04ee2d6d415b85acef81000000008381613cb157613cb0615a13565b5b0492506020810190505b662386f26fc100008310613cea57662386f26fc100008381613ce057613cdf615a13565b5b0492506010810190505b6305f5e1008310613d13576305f5e1008381613d0957613d08615a13565b5b0492506008810190505b6127108310613d38576127108381613d2e57613d2d615a13565b5b0492506004810190505b60648310613d5b5760648381613d5157613d50615a13565b5b0492506002810190505b600a8310613d6a576001810190505b80915050919050565b60405180610100016040528060008152602001600081526020016000815260200160008152602001600073ffffffffffffffffffffffffffffffffffffffff16815260200160608152602001606081526020016000151581525090565b6040518060600160405280613de3613d73565b8152602001613df0613ec6565b8152602001613dfd613efc565b81525090565b604051806060016040528060008152602001600073ffffffffffffffffffffffffffffffffffffffff1681526020016000151581525090565b828054828255906000526020600020908101928215613eb5579160200282015b82811115613eb45782518260006101000a81548173ffffffffffffffffffffffffffffffffffffffff021916908373ffffffffffffffffffffffffffffffffffffffff16021790555091602001919060010190613e5c565b5b509050613ec29190613f1d565b5090565b6040518060c001604052806000815260200160008152602001600081526020016000815260200160008152602001606081525090565b60405180606001604052806060815260200160608152602001606081525090565b5b80821115613f36576000816000905550600101613f1e565b5090565b6000604051905090565b600080fd5b600080fd5b60007fffffffff0000000000000000000000000000000000000000000000000000000082169050919050565b613f8381613f4e565b8114613f8e57600080fd5b50565b600081359050613fa081613f7a565b92915050565b600060208284031215613fbc57613fbb613f44565b5b6000613fca84828501613f91565b91505092915050565b60008115159050919050565b613fe881613fd3565b82525050565b60006020820190506140036000830184613fdf565b92915050565b600081519050919050565b600082825260208201905092915050565b60005b83811015614043578082015181840152602081019050614028565b60008484015250505050565b6000601f19601f8301169050919050565b600061406b82614009565b6140758185614014565b9350614085818560208601614025565b61408e8161404f565b840191505092915050565b600060208201905081810360008301526140b38184614060565b905092915050565b6000819050919050565b6140ce816140bb565b81146140d957600080fd5b50565b6000813590506140eb816140c5565b92915050565b60006020828403121561410757614106613f44565b5b6000614115848285016140dc565b91505092915050565b600073ffffffffffffffffffffffffffffffffffffffff82169050919050565b60006141498261411e565b9050919050565b6141598161413e565b82525050565b60006020820190506141746000830184614150565b92915050565b6141838161413e565b811461418e57600080fd5b50565b6000813590506141a08161417a565b92915050565b600080604083850312156141bd576141bc613f44565b5b60006141cb85828601614191565b92505060206141dc858286016140dc565b9150509250929050565b6141ef816140bb565b82525050565b600060a08201905061420a60008301886141e6565b61421760208301876141e6565b61422460408301866141e6565b61423160608301856141e6565b61423e60808301846141e6565b9695505050505050565b60008060006060848603121561426157614260613f44565b5b600061426f86828701614191565b935050602061428086828701614191565b9250506040614291868287016140dc565b9150509250925092565b60006020820190506142b060008301846141e6565b92915050565b6142bf816140bb565b82525050565b6142ce8161413e565b82525050565b600082825260208201905092915050565b60006142f082614009565b6142fa81856142d4565b935061430a818560208601614025565b6143138161404f565b840191505092915050565b61432781613fd3565b82525050565b60006101008301600083015161434660008601826142b6565b50602083015161435960208601826142b6565b50604083015161436c60408601826142b6565b50606083015161437f60608601826142b6565b50608083015161439260808601826142c5565b5060a083015184820360a08601526143aa82826142e5565b91505060c083015184820360c08601526143c482826142e5565b91505060e08301516143d960e086018261431e565b508091505092915050565b600060208201905081810360008301526143fe818461432d565b905092915050565b60006101008301600083015161441f60008601826142b6565b50602083015161443260208601826142b6565b50604083015161444560408601826142b6565b50606083015161445860608601826142b6565b50608083015161446b60808601826142c5565b5060a083015184820360a086015261448382826142e5565b91505060c083015184820360c086015261449d82826142e5565b91505060e08301516144b260e086018261431e565b508091505092915050565b600081519050919050565b600082825260208201905092915050565b6000819050602082019050919050565b60006144f583836142c5565b60208301905092915050565b6000602082019050919050565b6000614519826144bd565b61452381856144c8565b935061452e836144d9565b8060005b8381101561455f57815161454688826144e9565b975061455183614501565b925050600181019050614532565b5085935050505092915050565b600060c08301600083015161458460008601826142b6565b50602083015161459760208601826142b6565b5060408301516145aa60408601826142b6565b5060608301516145bd60608601826142b6565b5060808301516145d060808601826142b6565b5060a083015184820360a08601526145e8828261450e565b9150508091505092915050565b6000606083016000830151848203600086015261461282826142e5565b9150506020830151848203602086015261462c82826142e5565b9150506040830151848203604086015261464682826142e5565b9150508091505092915050565b600060608301600083015184820360008601526146708282614406565b9150506020830151848203602086015261468a828261456c565b915050604083015184820360408601526146a482826145f5565b9150508091505092915050565b600060208201905081810360008301526146cb8184614653565b905092915050565b6000602082840312156146e9576146e8613f44565b5b60006146f784828501614191565b91505092915050565b600061010082019050614716600083018b6141e6565b614723602083018a6141e6565b61473060408301896141e6565b61473d60608301886141e6565b61474a6080830187614150565b81810360a083015261475c8186614060565b905081810360c08301526147708185614060565b905061477f60e0830184613fdf565b9998505050505050505050565b600080604083850312156147a3576147a2613f44565b5b60006147b1858286016140dc565b92505060206147c2858286016140dc565b9150509250929050565b600081519050919050565b600082825260208201905092915050565b6000819050602082019050919050565b60006148048383614406565b905092915050565b6000602082019050919050565b6000614824826147cc565b61482e81856147d7565b935083602082028501614840856147e8565b8060005b8581101561487c578484038952815161485d85826147f8565b94506148688361480c565b925060208a01995050600181019050614844565b50829750879550505050505092915050565b600060208201905081810360008301526148a88184614819565b905092915050565b600066ffffffffffffff82169050919050565b6148cc816148b0565b81146148d757600080fd5b50565b6000813590506148e9816148c3565b92915050565b6000806040838503121561490657614905613f44565b5b6000614914858286016148da565b925050602061492585828601614191565b9150509250929050565b60008060006060848603121561494857614947613f44565b5b6000614956868287016140dc565b9350506020614967868287016140dc565b9250506040614978868287016140dc565b9150509250925092565b600081519050919050565b600082825260208201905092915050565b6000819050602082019050919050565b6060820160008201516149c460008501826142b6565b5060208201516149d760208501826142c5565b5060408201516149ea604085018261431e565b50505050565b60006149fc83836149ae565b60608301905092915050565b6000602082019050919050565b6000614a2082614982565b614a2a818561498d565b9350614a358361499e565b8060005b83811015614a66578151614a4d88826149f0565b9750614a5883614a08565b925050600181019050614a39565b5085935050505092915050565b60006020820190508181036000830152614a8d8184614a15565b905092915050565b600080fd5b600080fd5b7f4e487b7100000000000000000000000000000000000000000000000000000000600052604160045260246000fd5b614ad78261404f565b810181811067ffffffffffffffff82111715614af657614af5614a9f565b5b80604052505050565b6000614b09613f3a565b9050614b158282614ace565b919050565b600067ffffffffffffffff821115614b3557614b34614a9f565b5b614b3e8261404f565b9050602081019050919050565b82818337600083830152505050565b6000614b6d614b6884614b1a565b614aff565b905082815260208101848484011115614b8957614b88614a9a565b5b614b94848285614b4b565b509392505050565b600082601f830112614bb157614bb0614a95565b5b8135614bc1848260208601614b5a565b91505092915050565b600080fd5b600080fd5b600060608284031215614bea57614be9614bca565b5b614bf46060614aff565b9050600082013567ffffffffffffffff811115614c1457614c13614bcf565b5b614c2084828501614b9c565b600083015250602082013567ffffffffffffffff811115614c4457614c43614bcf565b5b614c5084828501614b9c565b602083015250604082013567ffffffffffffffff811115614c7457614c73614bcf565b5b614c8084828501614b9c565b60408301525092915050565b600080600080600060a08688031215614ca857614ca7613f44565b5b600086013567ffffffffffffffff811115614cc657614cc5613f49565b5b614cd288828901614b9c565b955050602086013567ffffffffffffffff811115614cf357614cf2613f49565b5b614cff88828901614b9c565b9450506040614d10888289016140dc565b9350506060614d21888289016140dc565b925050608086013567ffffffffffffffff811115614d4257614d41613f49565b5b614d4e88828901614bd4565b9150509295509295909350565b614d6481613fd3565b8114614d6f57600080fd5b50565b600081359050614d8181614d5b565b92915050565b60008060408385031215614d9e57614d9d613f44565b5b6000614dac85828601614191565b9250506020614dbd85828601614d72565b9150509250929050565b600081519050919050565b600082825260208201905092915050565b6000819050602082019050919050565b60006060830160008301518482036000860152614e108282614406565b91505060208301518482036020860152614e2a828261456c565b91505060408301518482036040860152614e4482826145f5565b9150508091505092915050565b6000614e5d8383614df3565b905092915050565b6000602082019050919050565b6000614e7d82614dc7565b614e878185614dd2565b935083602082028501614e9985614de3565b8060005b85811015614ed55784840389528151614eb68582614e51565b9450614ec183614e65565b925060208a01995050600181019050614e9d565b50829750879550505050505092915050565b60006020820190508181036000830152614f018184614e72565b905092915050565b6000606082019050614f1e60008301866141e6565b614f2b6020830185614150565b614f386040830184613fdf565b949350505050565b60006060820190508181036000830152614f5a8186614060565b90508181036020830152614f6e8185614060565b90508181036040830152614f828184614060565b9050949350505050565b600067ffffffffffffffff821115614fa757614fa6614a9f565b5b614fb08261404f565b9050602081019050919050565b6000614fd0614fcb84614f8c565b614aff565b905082815260208101848484011115614fec57614feb614a9a565b5b614ff7848285614b4b565b509392505050565b600082601f83011261501457615013614a95565b5b8135615024848260208601614fbd565b91505092915050565b6000806000806080858703121561504757615046613f44565b5b600061505587828801614191565b945050602061506687828801614191565b9350506040615077878288016140dc565b925050606085013567ffffffffffffffff81111561509857615097613f49565b5b6150a487828801614fff565b91505092959194509250565b600080604083850312156150c7576150c6613f44565b5b60006150d5858286016140dc565b92505060206150e685828601614191565b9150509250929050565b6000806040838503121561510757615106613f44565b5b600061511585828601614191565b925050602061512685828601614191565b9150509250929050565b7f4e487b7100000000000000000000000000000000000000000000000000000000600052602260045260246000fd5b6000600282049050600182168061517757607f821691505b60208210810361518a57615189615130565b5b50919050565b60006060820190506151a56000830186614150565b6151b260208301856141e6565b6151bf6040830184614150565b949350505050565b7f4e6f74206578697374206576656e742069640000000000000000000000000000600082015250565b60006151fd601283614014565b9150615208826151c7565b602082019050919050565b6000602082019050818103600083015261522c816151f0565b9050919050565b7f4e487b7100000000000000000000000000000000000000000000000000000000600052603260045260246000fd5b7f596f7520617265206e6f7420616e206576656e74206f776e65722e0000000000600082015250565b6000615298601b83614014565b91506152a382615262565b602082019050919050565b600060208201905081810360008301526152c78161528b565b9050919050565b60006040820190506152e36000830185614150565b6152f060208301846141e6565b9392505050565b7f4e487b7100000000000000000000000000000000000000000000000000000000600052601160045260246000fd5b6000615331826140bb565b915061533c836140bb565b9250828201905080821115615354576153536152f7565b5b92915050565b6000615365826140bb565b9150615370836140bb565b9250828203905081811115615388576153876152f7565b5b92915050565b6000615399826140bb565b91507fffffffffffffffffffffffffffffffffffffffffffffffffffffffffffffffff82036153cb576153ca6152f7565b5b600182019050919050565b7f416c726561647920636c61696d65640000000000000000000000000000000000600082015250565b600061540c600f83614014565b9150615417826153d6565b602082019050919050565b6000602082019050818103600083015261543b816153ff565b9050919050565b7f4e6f742074696d6520746f20636c61696d2e20416c72656164792073746f707060008201527f65642e0000000000000000000000000000000000000000000000000000000000602082015250565b600061549e602383614014565b91506154a982615442565b604082019050919050565b600060208201905081810360008301526154cd81615491565b9050919050565b7f4e6f742074696d6520746f20636c61696d2e204e6f742073746172746564207960008201527f65742e0000000000000000000000000000000000000000000000000000000000602082015250565b6000615530602383614014565b915061553b826154d4565b604082019050919050565b6000602082019050818103600083015261555f81615523565b9050919050565b7f4e6f742074696d6520746f20636c61696d2e20416c72656164792066696e697360008201527f6865642e00000000000000000000000000000000000000000000000000000000602082015250565b60006155c2602483614014565b91506155cd82615566565b604082019050919050565b600060208201905081810360008301526155f1816155b5565b9050919050565b6000819050919050565b600061561d615618615613846148b0565b6155f8565b6140bb565b9050919050565b61562d81615602565b82525050565b60006040820190506156486000830185614150565b6156556020830184615624565b9392505050565b60008190508160005260206000209050919050565b60006020601f8301049050919050565b600082821b905092915050565b6000600883026156be7fffffffffffffffffffffffffffffffffffffffffffffffffffffffffffffffff82615681565b6156c88683615681565b95508019841693508086168417925050509392505050565b60006156fb6156f66156f1846140bb565b6155f8565b6140bb565b9050919050565b6000819050919050565b615715836156e0565b61572961572182615702565b84845461568e565b825550505050565b600090565b61573e615731565b61574981848461570c565b505050565b5b8181101561576d57615762600082615736565b60018101905061574f565b5050565b601f8211156157b2576157838161565c565b61578c84615671565b8101602085101561579b578190505b6157af6157a785615671565b83018261574e565b50505b505050565b600082821c905092915050565b60006157d5600019846008026157b7565b1980831691505092915050565b60006157ee83836157c4565b9150826002028217905092915050565b61580782614009565b67ffffffffffffffff8111156158205761581f614a9f565b5b61582a825461515f565b615835828285615771565b600060209050601f8311600181146158685760008415615856578287015190505b61586085826157e2565b8655506158c8565b601f1984166158768661565c565b60005b8281101561589e57848901518255600182019150602085019450602081019050615879565b868310156158bb57848901516158b7601f8916826157c4565b8355505b6001600288020188555050505b505050505050565b600081905092915050565b60006158e682614009565b6158f081856158d0565b9350615900818560208601614025565b80840191505092915050565b600061591882856158db565b915061592482846158db565b91508190509392505050565b600081519050919050565b600082825260208201905092915050565b600061595782615930565b615961818561593b565b9350615971818560208601614025565b61597a8161404f565b840191505092915050565b600060808201905061599a6000830187614150565b6159a76020830186614150565b6159b460408301856141e6565b81810360608301526159c6818461594c565b905095945050505050565b6000815190506159e081613f7a565b92915050565b6000602082840312156159fc576159fb613f44565b5b6000615a0a848285016159d1565b91505092915050565b7f4e487b7100000000000000000000000000000000000000000000000000000000600052601260045260246000fdfea26469706673582212204a47ad256860b384fb6dd0be3c5fa42434f5e2fb529419c7fc5ff77de7f68fef64736f6c63430008140033",
  "linkReferences": {},
  "deployedLinkReferences": {}
}